:100000000C9446000C9465000C9465000C946500FB
:100010000C9465000C9465000C9465000C946500CC
:100020000C9465000C9465000C9465000C946500BC
:100030000C9465000C9465000C9465000C946500AC
:100040000C9465000C9465000C9465000C9465009C
:100050000C9465000C9465000C9465000C9465008C
:100060000C9465000C9465000C9465000C9465007C
:100070000C9465000C9465000C9465000C9465006C
:100080000C9465000C9465000C94650011241FBE4F
:10009000CFEFD0E4DEBFCDBF11E0A0E0B1E0E4EBF4
:1000A000F1E000E00BBF02C007900D92AE30B10747
:1000B000D9F711E0AEE0B1E001C01D92A131B10766
:1000C000E1F70E94D0000C94D8000C940000CF936C
:1000D000C82F8A3019F48DE00E9467009091C0000B
:1000E00095FFFCCFC093C60080E090E0CF910895CB
:1000F00080910F019091100182309105B9F028F4A0
:10010000009749F0019771F025C083309105A9F05F
:100110000497D1F01FC081E090E09093100180938C
:100120000F0118C080B180B180B114C081E090E0AF
:100130009093100180930F010DC081E090E09093A7
:10014000100180930F0106C081E090E090931001B0
:1001500080930F0180910F019091100182309105E1
:1001600069F018F4892B39F017C08330910561F0DC
:10017000049781F011C010920E010EC080910E0103
:100180008F5F80930E0108C080910E018150809393
:100190000E0102C010920E0180910E0188B90895DF
:1001A00011B88FEF87B918B882B90E947800FDCFD7
:0401B000F894FFCFF1
:0E01B4000000000200000000670000000000D4
:00000001FF
